:10000000D028000000000000B6000B11F83081007D
:10001000B401B00A0A303002031D2128B001B10A30
:100020000A303102031D2128B101B20A0A3032021E
:10003000031D2128B201B30A0A303302031D21280F
:10004000B3013608090000000000000000000000B5
:1000500000000000000000000000000000000000A0
:100060000000000000000000000000000000000090
:100070000000000000000000000000000000000080
:100080000000000000000000000000000000000070
:100090000000000000000000000000000000000060
:1000A0000000000000000000000000000000000050
:1000B0000000000000000000000000000000000040
:1000C0000000000000000000000000000000000030
:1000D0000000000000000000000000000000000020
:1000E0000000000000000000000000000000000010
:1000F0000000000000000000000000000000000000
:1001000000000000000000000000000000000000EF
:1001100000000000000000000000000000000000DF
:1001200000000000000000000000000000000000CF
:1001300000000000000000000000000000000000BF
:1001400000000000000000000000000000000000AF
:10015000000000000000000000000000000000009F
:10016000000000000000000000000000000000008F
:10017000000000000000000000000000000000007F
:10018000000000000000000000000000000000006F
:10019000000000000000000000000000000000005F
:1001A00086308400800188308400800181308400A2
:1001B00000148014001580118012F83081008B1714
:1001C0008B163008F6208600081408103108F62037
:1001D0008600881488103208F62086000815081159
:1001E0003308F620860088158811E12882073F34FD
:1001F00006345B344F3456345D347D3407347F34F9
:02020000573471
:02400E00713F00
:00000001FF
